:100000000C942A000C9447000C9447000C94470071
:100010000C9447000C9447000C9447000C94470044
:100020000C9447000C9447000C9447000C94470034
:100030000C9447000C9447000C9447000C94470024
:100040000C9447000C9447000C9447000C94470014
:100050000C94470011241FBECFE5D8E0DEBFCDBF12
:1000600010E0A0E6B0E0EAE1F5E002C005900D92F4
:10007000A036B107D9F720E0A0E6B0E001C01D929C
:10008000A036B207E1F70E9449000C948B020C9451
:10009000000082E00E9463000E946B020E948602C0
:1000A0002FEF83ED90E3215080409040E1F700C0B6
:1000B000000082E090E00E9481028530D1F782E06A
:1000C0000E947800F6CF813049F018F0823059F064
:1000D000089561E080E20E948D00089561E085E26C
:1000E0000E948D00089561E087E10E948D000895CF
:1000F000813049F018F0823059F0089561E080E2D3
:100100000E947C01089561E085E20E947C010895CF
:1001100061E087E10E947C0108959DEC899F912D0B
:100120001124969596959695662309F472C06130D0
:1001300009F0E1C0923021F118F4913039F00895BE
:100140009330C1F1943009F44CC0089547B39DEC4D
:10015000899F912D1124969596959695990F292F03
:10016000220F220F920F891B21E030E0B90102C05B
:10017000660F771F8A95E2F7CB01842B87BB089522
:1001800041B39DEC899F912D112492959F70990FF9
:10019000990F292F220F220F920F891B21E030E0A7
:1001A000B90102C0660F771F8A95E2F7CB01842B55
:1001B00081BB089544B399E8899F912D11249295AC
:1001C0009F707EE1979F8019112421E030E0B901F2
:1001D00002C0660F771F8A95E2F7CB01842B84BBA0
:1001E00008954AB39DEC899F912D1124929596957F
:1001F000977078E2979F8019112421E030E0B901CF
:1002000002C0660F771F8A95E2F7CB01842B8ABB69
:100210000895923029F118F4913039F0089593300F
:10022000D1F1943009F44FC0089547B39DEC899FF4
:10023000912D1124969596959695990F292F220F19
:10024000220F920F891B21E030E0B90102C0660F36
:10025000771F8A95E2F7CB018095842387BB0895A9
:1002600041B39DEC899F912D112492959F70990F18
:10027000990F292F220F220F920F891B21E030E0C6
:10028000B90102C0660F771F8A95E2F7CB0180950E
:10029000842381BB089544B399E8899F912D11244B
:1002A00092959F707EE1979F8019112421E030E0A4
:1002B000B90102C0660F771F8A95E2F7CB018095DE
:1002C000842384BB08954AB39DEC899F912D11240A
:1002D00092959695977078E2979F8019112421E066
:1002E00030E0B90102C0660F771F8A95E2F7CB01B3
:1002F000809584238ABB08959DEC899F912D1124BC
:10030000969596959695662309F472C0613009F02A
:10031000E1C0923021F118F4913039F00895933012
:10032000C1F1943009F44CC0089548B39DEC899F05
:10033000912D1124969596959695990F292F220F18
:10034000220F920F891B21E030E0B90102C0660F35
:10035000771F8A95E2F7CB01842B88BB089542B3BF
:100360009DEC899F912D112492959F70990F990F63
:10037000292F220F220F920F891B21E030E0B901B3
:1003800002C0660F771F8A95E2F7CB01842B82BBF0
:10039000089545B399E8899F912D112492959F70F6
:1003A0007EE1979F8019112421E030E0B90102C05D
:1003B000660F771F8A95E2F7CB01842B85BB0895E2
:1003C0004BB39DEC899F912D112492959695977032
:1003D00078E2979F8019112421E030E0B90102C032
:1003E000660F771F8A95E2F7CB01842B8BBB0895AC
:1003F000923029F118F4913039F008959330D1F109
:10040000943009F44FC0089548B39DEC899F912D15
:100410001124969596959695990F292F220F220FC4
:10042000920F891B21E030E0B90102C0660F771FEF
:100430008A95E2F7CB018095842388BB089542B367
:100440009DEC899F912D112492959F70990F990F82
:10045000292F220F220F920F891B21E030E0B901D2
:1004600002C0660F771F8A95E2F7CB01809584233F
:1004700082BB089545B399E8899F912D11249295E7
:100480009F707EE1979F8019112421E030E0B9012F
:1004900002C0660F771F8A95E2F7CB01809584230F
:1004A00085BB08954BB39DEC899F912D11249295A6
:1004B0009695977078E2979F8019112421E030E09B
:1004C000B90102C0660F771F8A95E2F7CB018095CC
:1004D00084238BBB08956D9A61E08FE00E948D00AC
:1004E00060E080E10E948D0061E081E10E948D006A
:1004F00061E08EE00E948D006C9A6E9A689A699A0B
:1005000008958FB9779BFECF8FB1089560E08EE09C
:0A0510000E947C010895F894FFCFCB
:00000001FF
